:1078000022E0A0E0B1E001C01D92A730B207E1F78D
:1078100080E88093BC00E0910001F091010109959E
:10782000FACFCF92DF92EF92FF92C12CD12C76014A
:107830008091BC0087FD13C08FEFC81AD80AE80AF0
:10784000F80A80E4C81682E4D8068FE0E806F1045E
:1078500078F3E0910001F09101010995E9CF809161
:10786000B900887F803821F78091BB0094EC909319
:10787000BC00FF90EF90DF90CF900895CF92DF9201
:10788000EF92FF92CF93DF931F92CDB7DEB7C12C5B
:10789000D12C76019091BC0097FD15C09FEFC91ABD
:1078A000D90AE90AF90A90E4C91692E4D9069FE0D8
:1078B000E906F10478F3E0910001F0910101898378
:1078C00009958981E7CF9091B900987F983B11F78E
:1078D0008093BB0084EC8093BC000F90DF91CF912C
:1078E000FF90EF90DF90CF9008959BDF803221F4DE
:1078F00084E1C4DF80E1C2CF809106028F5F809374
:1079000006028B3008F084CF0895CF93C82F89DF0B
:10791000803239F484E1B2DF8C2FB0DF80E1CF9187
:10792000ADCF809106028F5F809306028B3008F006
:107930006FDFCF910895CF93DF9300D000D0CDB704
:10794000DEB784B798E190936000109260008D706C
:1079500009F05EDF10920602F89488E28093BA0084
:1079600084EC8093BC0078945CDF803309F450C0D1
:107970008133A1F456DF803209F078C184E17EDFE3
:1079800081E47CDF86E57ADF82E578DF80E276DFFE
:1079900089E474DF83E572DF80E561C1803429F416
:1079A00040DF863808F434C032C0813409F539DF4D
:1079B000803811F482E044C0813811F481E040C085
:1079C000823811F480E13CC0883981F483E038C00A
:1079D000863509F037C025DF8C8323DF8B8321DFD9
:1079E0008A831FDF89838C818033F9F080E028C08F
:1079F000823439F404E110E014DF01501109E1F799
:107A000007C0853439F40DDF0CDF0BDF0ADF09DF37
:107A10006CDFAACF982F9D7F9035D1F38135C1F6C9
:107A200064DF80E880936000FFCF8A81811102C00B
:107A30008EE106C08A81813011F485E901C08FE0B2
:107A400064DF92CF853559F4ECDE182FEADE212F62
:107A500030E0382B3093050220930402D9CF8436CE
:107A600009F0A7C0DEDE182FDCDE212F30E0322F38
:107A70002227282B3093030120930201D2DEF82E17
:107A800004E011E02091020130910301C80184500B
:107A900091408217930728F4C4DEF80181938F0187
:107AA000F1CFBFDE803209F0E1C0809104029091F5
:107AB0000502F5E4880F991F909305028093040254
:107AC000FF121AC0E4E0F1E02091020130910301BD
:107AD000CF01845091408217930708F068C0F9994C
:107AE000FECF809104029091050292BD81BD8191EB
:107AF00080BDFA9AF99AE8CF809102019091030132
:107B000080FF05C001969093030180930201F894D1
:107B1000F999FECF1C2E2D2E1127E0910402F09131
:107B20000502C4E0D1E08091020190910301103080
:107B300091F40091570001700130D9F303E00093F4
:107B40005700E8950091570001700130D9F301E129
:107B500000935700E8950990199000915700017023
:107B60000130D9F301E000935700E89513951034E4
:107B700098F011270091570001700130D9F305E00A
:107B800000935700E8950091570001700130D9F338
:107B900001E100935700E8953296029709F0C7CFAC
:107BA000103011F00296E5CF1124C12DD22D84E1C1
:107BB00056C0843709F047C034DE182F32DE212F3B
:107BC00030E0322F2227282B30930301209302012B
:107BD00028DEF82E8091040290910502880F991FEB
:107BE00090930502809304021CDE803209F0BCCE23
:107BF00084E144DE00E010E08091020190910301F5
:107C00000817190768F525E4F2120BC0F999FECFA1
:107C1000809104029091050292BD81BDF89A80B5D1
:107C200005C0E0910402F0910502849127DE809165
:107C3000040290910502019690930502809304023C
:107C40000F5F1F4FD9CF853771F4EBDD803271F4B0
:107C500084E114DE8EE112DE85E910DE8FE00EDEB7
:107C600080E10CDE81CE863709F4C0CE8091060219
:0E7C70008F5F809306028B3008F476CE6ACECA
:040000030000780081
:00000001FF
