:103800000C94341C0C94461C0C94461C0C94461CC2
:103810000C94461C0C94461C0C94461C0C94461CA0
:103820000C94461C0C94461C0C94461C0C94461C90
:103830000C94461C0C94461C0C94461C0C94461C80
:103840000C94461C0C94461C0C94461C0C94461C70
:103850000C94461C0C94461C0C94461C0C94461C60
:103860000C94461C0C94461C11241FBECFEFD8E0CC
:10387000DEBFCDBF22E0A0E0B1E001C01D92A730C5
:10388000B207E1F70E94E41C0C94B41E0C94001CD7
:1038900080E88093BC00E0910001F091010109955E
:1038A000FACFCF92DF92EF92FF92C12CD12C76010A
:1038B0008091BC0087FD13C08FEFC81AD80AE80AB0
:1038C000F80A80E4C81682E4D8068FE0E806F1041E
:1038D00078F3E0910001F09101010995E9CF809121
:1038E000B900887F803821F78091BB0094EC9093D9
:1038F000BC00FF90EF90DF90CF900895CF92DF92C1
:10390000EF92FF92CF93DF931F92CDB7DEB7C12C1A
:10391000D12C76019091BC0097FD15C09FEFC91A7C
:10392000D90AE90AF90A90E4C91692E4D9069FE097
:10393000E906F10478F3E0910001F0910101898337
:1039400009958981E7CF9091B900987F983B11F74D
:103950008093BB0084EC8093BC000F90DF91CF91EB
:10396000FF90EF90DF90CF9008950E94511C80321D
:1039700031F484E10E947E1C80E10C947E1C8091D5
:1039800006028F5F809306028B3010F00E94481C65
:103990000895CF93C82F0E94511C803251F484E1C6
:1039A0000E947E1C8C2F0E947E1C80E1CF910C9483
:1039B0007E1C809106028F5F809306028B3010F090
:1039C0000E94481CCF910895CF93DF9300D000D080
:1039D000CDB7DEB784B798E1909360001092600095
:1039E0008D7011F00E94481C10920602F89488E233
:1039F0008093BA0084EC8093BC0078940E94511CA0
:103A0000803309F464C08133E1F40E94511C803298
:103A100009F0A1C184E10E947E1C81E40E947E1C09
:103A200086E50E947E1C82E50E947E1C80E20E9448
:103A30007E1C89E40E947E1C83E50E947E1C80E53A
:103A400081C1803431F40E94511C863808F43FC093
:103A50003CC0813431F50E94511C803811F482E061
:103A600050C0813811F481E04CC0823811F480E1FB
:103A700048C08839A1F483E044C0863509F044C0C9
:103A80000E94511C8C830E94511C8B830E94511CEC
:103A90008A830E94511C89838C81803339F180E0B4
:103AA00030C0823441F404E110E00E94511C015006
:103AB0001109D9F70CC0853469F40E94511C0E9489
:103AC000511C0E94511C0E94511C0E94511C0E94BA
:103AD000B51C94CF982F9D7F9035C9F3813569F639
:103AE0000E94B51C80E880936000FFCF8A8181111D
:103AF00002C08EE106C08A81813011F485E901C0DF
:103B00008FE00E94C91C7ACF853569F40E94511C50
:103B1000182F0E94511C212F30E0382B30930502C2
:103B200020930402D4CF843609F0ACC00E94511C0B
:103B3000182F0E94511C212F30E0322F2227282BD2
:103B400030930301209302010E94511CF82E04E0DF
:103B500011E02091020130910301C801845091408D
:103B60008217930730F40E94511CF80181938F0152
:103B7000F0CF0E94511C803209F0EDC08091040208
:103B800090910502F5E4880F991F909305028093A8
:103B90000402FF121AC0E4E0F1E02091020130912A
:103BA0000301CF01845091408217930708F068C049
:103BB000F999FECF809104029091050292BD81BDDA
:103BC000819180BDFA9AF99AE8CF80910201909193
:103BD000030180FF05C001969093030180930201C9
:103BE000F894F999FECF1C2E2D2E1127E091040296
:103BF000F0910502C4E0D1E08091020190910301AF
:103C0000103091F40091570001700130D9F303E0B6
:103C100000935700E8950091570001700130D9F3E7
:103C200001E100935700E895099019900091570021
:103C300001700130D9F301E000935700E895139526
:103C4000103498F011270091570001700130D9F31A
:103C500005E000935700E89500915700017001308E
:103C6000D9F301E100935700E8953296029709F0E5
:103C7000C7CF103011F00296E5CF1124C12DD22DFF
:103C800084E160C0843709F04DC00E94511C182F98
:103C90000E94511C212F30E0322F2227282B3093F5
:103CA0000301209302010E94511CF82E809104020E
:103CB00090910502880F991F90930502809304024A
:103CC0000E94511C803209F099CE84E10E947E1C32
:103CD00000E010E08091020190910301081719079C
:103CE00098F525E4F2120BC0F999FECF80910402F9
:103CF0009091050292BD81BDF89A80B505C0E09112
:103D00000402F091050284910E947E1C80910402BD
:103D100090910502019690930502809304020F5F33
:103D20001F4FD8CF8537A1F40E94511C803299F4DF
:103D300084E10E947E1C8EE10E947E1C85E90E9427
:103D40007E1C8FE00E947E1C80E10E947E1C56CE6D
:103D5000863709F4A4CE809106028F5F8093060215
:0C3D60008B3008F44BCE3ECEF894FFCF21
:0400000300003800C1
:00000001FF
